:0E05EE00C2A6D2A5D2A7AF80EF5480FFC2A74D
:0105FC0022DC
:1005B900C2A6C2A5C2A78F80D2A77F011205DDC23C
:0205C900A72267
:1005CB00D2A6C2A5C2A78F80D2A77F011205DDC21A
:0205DB00A72255
:10052E00EDD39401501CEF940F5017ED7007EF248C
:10053E0080F5468008BD0105EF24C0F546AF461292
:02054E0005B9ED
:010550002288
:1005A5007F381205B97F0C1205B97F061205B97F90
:0405B500010205B981
:0505FD007F010205B9B9
:100551008B218A228923AB21AA22A9231200F9FF28
:1005610060101205CB74012523F523E43522F52211
:0305710080E42201
:1004BF004F70656E2020546F74616C3A004C6F63FF
:1004CF006B0041646D696E0020202D2D2D2D2D2D7B
:1004DF002D2D2D2D2D2D2D2D7C7C2D2D2D2D2D2D9F
:0B04EF002D2D2D2D2D2D2D2D7C7C00A2
:10047B0007192020202020200007122A2A2A2A2AA6
:10048B002A00070B31323334353600C101C100016C
:08049B000A000109000108003C
:0604FA008B228A238924F5
:10050000E4FFAB25AA26A9278F827583001201126A
:10051000FEAB22AA23A9248F827583001201126EDA
:0D0520006002C3220F0FEFC3940640D6D334
:01052D0022AB
:10058F00E4FF30020674192FF8762074122FF876D4
:05059F002A0FBF06ED6C
:0105A4002234
:10041B0078237C007D007BFF7A0479D77E007F23D5
:10042B001200D31205FDE4FDFF12052EE4F522E5C3
:10043B0022B4110C7D017F0F12052E7F041205B91A
:10044B00E522B4210BE4FDFF12052E7F061205B940
:10045B0074232522F8E6FF1205CB7F641205DD0518
:10046B0022E522C3942240C77FFF1205DD0205FD62
:020253008F21F9
:10025500E521C39400403FE521D39409503820019E
:1002650013E508C39406400302030FE5212430FF7C
:100275007419801A20010620000302030FE508C344
:100285009406400302030FE5212430FF741225086C
:10029500F8A607050822E521B40A0A200107E4F5B6
:1002A50008D2018045E521640B704A300147F50805
:1002B500200012F525752600752712FB7A0079199D
:1002C5001204FA401730002575250075260075279C
:1002D500127B007A00790B1204FA5011C201C20098
:1002E500E4F50A0509D20212058F02041BC20212A7
:1002F500058F050A22E521B40C1030010DE4F5083F
:0A030500B2001205FDC20212058FBE
:01030F0022CB
:10039C0020014BE4FDFF12052E7B007A0079191227
:1003AC0005517D01E4FF12052E7BFF7A0479BF1203
:1003BC000551E50975F064842430FF1205CBE5097D
:1003CC0075F00A8475F00A84E5F02430FF1205CB31
:1003DC00E50975F00A84E5F02430FF0205CB300105
:1003EC002DE4FDFF12052E7B007A007912120551C7
:1003FC007D01E4FF12052E2000087BFF7A0479CCE6
:0F040C0080093000097BFF7A0479D11205512253
:100574001205A512039C12013F120253E50AC3940B
:0B058400034004C2A080ECD2A080E87D
:1004A300014700044800000000104CFFFFFFFFFF5E
:0B04B300FFFFFFFFFFFFFFFFFFFFFF49
:10013F00E54714600F1460111460132403701275D7
:10014F0090F7800D7590FB80087590FD800375907A
:10015F00FEE54725E025E0244CF8E625E0FFA297D1
:10016F00E4334FFFE54725E025E0244CF8A607E5EB
:10017F004725E025E0244DF8E625E0FFA296E4337D
:10018F004FFFE54725E025E0244DF8A607E5472575
:10019F00E025E0244EF8E625E0FFA295E4334FFF7B
:1001AF00E54725E025E0244EF8A607E54725E0259D
:1001BF00E0244FF8E625E0FFA294E4334FFFE54734
:1001CF0025E025E0244FF8A607E4FF74482547F8FB
:1001DF00E6FEA807088002C313D8FC20E02CE547F1
:1001EF0025E025E0244C2FF8E6701F74482547F8CA
:1001FF00C0007401A807088002C333D8FC4ED0009A
:10020F00F6E54725E025E02FFF22E54725E025E02D
:10021F00244C2FF8E6B4FF1974482547F8C000E6C0
:10022F00FE7401A807088002C333D8FCF45ED00027
:10023F00F60FEF640470940547E547B40403E4F543
:03024F00477FFFE7
:010252002289
:1005DD00E4FEEEC39F5009E4FD0DBD7FFC0E80F2DD
:0105ED0022EB
:03000000020310E8
:0C031000787FE4F6D8FD75815B0203578E
:10000300E709F608DFFA8046E709F208DFFA803EDF
:1000130088828C83E709F0A3DFFA8032E309F608CC
:10002300DFFA8078E309F208DFFA807088828C8334
:10003300E309F0A3DFFA806489828A83E0A3F608E8
:10004300DFFA805889828A83E0A3F208DFFA804CC2
:1000530080D280FA80C680D4806980F28033801099
:1000630080A680EA809A80A880DA80E280CA803302
:1000730089828A83ECFAE493A3C8C582C8CCC5837A
:10008300CCF0A3C8C582C8CCC583CCDFE9DEE7804A
:100093000D89828A83E493A3F608DFF9ECFAA9F0C9
:1000A300EDFB2289828A83ECFAE0A3C8C582C8CC1F
:1000B300C583CCF0A3C8C582C8CCC583CCDFEADE38
:1000C300E880DB89828A83E493A3F208DFF980CC9A
:1000D30088F0EF60010E4E60C388F0ED2402B40493
:1000E3000050B9F582EB2402B4040050AF2323453A
:0600F3008223900053730C
:1000F900BB010689828A83E0225002E722BBFE0205
:09010900E32289828A83E4932237
:10011200BB010CE58229F582E5833AF583E02250A2
:1001220006E92582F8E622BBFE06E92582F8E222EC
:0D013200E58229F582E5833AF583E4932206
:10031C00020574E493A3F8E493A34003F68001F27E
:10032C0008DFF48029E493A3F85407240CC8C333E2
:10033C00C4540F4420C8834004F456800146F6DFB1
:10034C00E4800B010204081020408090047BE47EC2
:10035C00019360BCA3FF543F30E509541FFEE493A6
:10036C00A360010ECF54C025E060A840B8E493A36D
:10037C00FAE493A3F8E493A3C8C582C8CAC583CA98
:10038C00F0A3C8C582C8CAC583CADFE9DEE780BE50
:0104BE00003D
:00000001FF
