:030D9B00014E0006
:10078E00EF7030C37408954EFE74FEA80608800202
:10079E00C313D8FCFEAC4E74FEA804088002C3330B
:1007AE00D8FC4EF5A0E54E6408600302084AF54EEB
:1007BE0002084ABF012CC37408954EFE747FA8062A
:1007CE00088002C333D8FCFEAC4E747FA8040880A8
:1007DE0002C313D8FC4EF5A0E54E6408705EF54ECC
:1007EE00805AEF64027055E54EC394075021C374CE
:1007FE0008954EFF74FEA807088002C313D8FCFFAD
:10080E00AE4E74FEA806088002C333D8FC8022C305
:10081E00740F954EFF747FA807088002C333D8FC6F
:10082E00FFE54E24F9FE747FA806088002C313D894
:10083E00FC4FF5A0E54EB40E03E4F54EAF057E0079
:05084E001211AA054E85
:010853002282
:0B0D9E0041003800440039FFFFFFFF58
:100ADB007F017E001211AA900039E025E0FFA2B140
:100AEB00E4334FF0A3E025E0FFA2B0E4334FF0A3D3
:100AFB00E025E0FFA2B2E4334FF0A3E025E0FFA234
:100B0B00B3E4334FF0E4FCAF04900038E0FEA807E9
:100B1B00088002C313D8FC20E02274392CF582E440
:100B2B003400F583E07015AF0404A807088002C3F6
:100B3B0033D8FC4E900038F0EC04FF2274392CF5BE
:100B4B0082E43400F583E0B4FF16900038E0FF74C4
:100B5B0001A804088002C333D8FCF45F900038F07E
:060B6B000CBC04A37FFF97
:010B71002261
:100DA900C100010A00010B00C101C103C102010810
:100DB9000001090044000000000000500004FFFF8A
:100DC900FFFFFFFFFFFFFFFFFFFFFFFFFFFF4400E4
:0C0DD9001400000000440018000000009E
:100026007FFFE50814600F14601114601324037039
:100036001275907F800D7590BF80087590DF8003E4
:100046007590EF200003020341C200E50825E02574
:10005600E02404F582E43400F583E025E0FEA29373
:10006600E4334EFEE50825E025E02404F582E43479
:1000760000F583EEF0E50825E025E02405F582E4A9
:100086003400F583E025E0FEA292E4334EFEE50857
:1000960025E025E02405F582E43400F583EEF0E55D
:1000A6000825E025E02406F582E43400F583E02502
:1000B600E0FEA291E4334EFEE50825E025E02406A5
:1000C600F582E43400F583EEF0E50825E025E0242A
:1000D60007F582E43400F583E025E0FEA290E433E0
:1000E6004EFEE50825E025E02407F582E43400F518
:1000F60083EEF0E4FE74002508F582E43400F5830F
:10010600E0FDA806088002C313D8FC20E03FE508FE
:1001160025E025E02404F582E43400F583E5822E0B
:10012600F582E43583F583E0702374002508F582B3
:10013600E43400F5837401A806088002C333D8FCB2
:100146004DF0E50825E025E02E04FF8038E508257A
:10015600E025E02404F582E43400F583E5822EF5FB
:1001660082E43583F583E0B4FF1B74002508F5822D
:10017600E43400F583E0FD7401A806088002C33369
:10018600D8FCF45DF00EEE640460030200FB741804
:100196002509F582E43400F583E060526F601D7432
:1001A600182509F582E43400F583E4F07414250972
:1001B600F582E43400F583E4F00203187418250987
:1001C600F582E43400F583E02410FF74002508F579
:1001D60082E43400F583E0FEEF145403FD7401A8B5
:1001E60005088002C333D8FCF45EF0020318EFF46E
:1001F60070030202EFAE09E50AA806088002C313DF
:10020600D8FC20E03D74142509F582E43400F5831A
:10021600EFF0E4F50BAE0904A806088002C333D854
:10022600FC420A74002508F582E43400F583E0FEFA
:10023600EF145403FD7401A805088002C333D8FCEB
:10024600806074142509F582E43400F583E0B5076F
:100256002474002508F582E43400F583E0FEEF14EB
:100266005403FF7401A807088002C333D8FCF45E68
:10027600F07FFF803074142509F582E43400F5839D
:10028600EFF0E4F50B74002508F582E43400F583FD
:10029600E0FEEF145403FD7401A805088002C33381
:1002A600D8FCF45EF0E50BC394FA4066AF0974011E
:1002B600A807088002C333D8FCF4520A741425092F
:1002C600F582E43400F583E0FF74182509F582E42D
:1002D6003400F583EFF074182509F582E43400F54F
:1002E60083E02410FFD202802974182509F582E4E0
:1002F6003400F583E4F074142509F582E43400F53E
:1003060083E4F0AE0904A806088002C333D8FCF4DF
:10031600520AEFC39411400FEFD3942050093001D5
:1003260004C20180027FFF0509E509B40403E4F570
:10033600090508E508B40403E4F508EFC394115071
:0303460002D203DD
:010349002291
:050DE500C104014F00F4
:100B720030040FC204054FE54FB40803E4F54FE417
:100B8200F580E54FB40800507B900B92F82828734B
:100B9200020BAA020BB6020BC1020BCC020BD7024C
:100BA2000BE2020BED020BF8D2A4D2A3D2A21205E1
:100BB200CEF58022D2A4D2A3C2A29000018040D25C
:100BC200A4C2A3D2A29000028035D2A4C2A3C2A220
:100BD200900003802AC2A4D2A3D2A2900004801F54
:100BE200C2A4D2A3C2A29000058014C2A4C2A3D2FE
:100BF200A29000068009C2A4C2A3C2A2900007125A
:040C020005E7F5808D
:010C060022CB
:0E128B00C2A6D2A5D2A7AF80EF5480FFC2A7A3
:011299002232
:10000E00C2A6C2A5C2A78F80D2A77F017E00121101
:04001E00AAC2A722A9
:10121A00D2A6C2A5C2A78F80D2A77F017E001211D3
:04122A00AAC2A7228B
:10114400EDD39401501CEF940F5017ED7007EF246A
:1011540080F5508008BD0105EF24C0F550AF501252
:02116400000E7B
:011166002266
:10122E007F3812000E7F0C12000E7F0612000E7F0A
:04123E000102000E9B
:050006007F0102000E65
:101167008B148A158916AB14AA15A9161205CEFF7A
:10117700601012121A74012516F516E43515F515C7
:0311870080E422DF
:050DEA00C105015100EC
:0E129A008F0C8D0D90003DEBF0A3E50FF022C0
:0612E80090003EEFF02231
:101016002005170551E551FB3395E0FAC3EB9F74A4
:1010260080F86A98401ED205801A3005171551AF10
:1010360005AD51ED3395E0FCD3ED9F7480F86C98C7
:101046005002C205AF511212E87F017E000211AABA
:030DEF00015200AE
:0E12A8008F108D1190003FEBF0A3E513F022A4
:0612EE00900040EFF02229
:020F8A008F5383
:100F8C007FFF120026BF011F740A2552F552E5534C
:100F9C00FDE552FB3395E0FAC3EB9D7480F86A983B
:100FAC0040188553528013BF021074F62552F55227
:100FBC00D3648094805003E4F552AF521212EE7F4A
:060FCC00017E000211AAE3
:090DF20001170102180001C107FC
:100C9300E51714B408005062900CA975F003A4C5BD
:100CA3008325F0C58373020CC1020CC7020CCD026D
:100CB3000CD7020CDD020CE7020CF1020CF5D2B6E4
:100CC300C2A7800AD2B6D2A78004C2B6D2A7C2A650
:100CD300C2A08026C2B6D2A78004C2B6C2A7D2A63B
:100CE300C2A08016C2B6C2A7D2A6D2A0800CC2B63A
:100CF3008002D2B6C2A7C2A6D2A07F507E00121233
:100D0300C420060B0517E517B4090A75170122D588
:050D130017037517082D
:010D180022B8
:10085400E51954072401FDE433FC7069ED14B40870
:1008640000506290087575F003A4C58325F0C58314
:100874007302088D0208930208990208A30208A9CA
:100884000208B30208BD0208C1D2B6C2A7800AD2C8
:10089400B6D2A78004C2B6D2A7C2A6C2A08026C27E
:1008A400B6D2A78004C2B6C2A7D2A6C2A08016C27E
:1008B400B6C2A7D2A6D2A0800CC2B68002D2B6C25B
:1008C400A7C2A6D2A07E001212C42007180519E5FB
:1008D4001970020518B4D023E518B4071ED2077F97
:1008E400507E008013E519151970021518E5194595
:0B08F400187008C2077F50FE1212C4EB
:0108FF0022D6
:10126900C2B77F4B7E001212C4D2B77F027E000242
:0212790012C49D
:100FD200E4F55430B712E554C39414500B05547F12
:100FE200017E001212C480EBE554C394144002D374
:100FF20022E4F55420B712E554C39414500B05545F
:101002007F017E001212C480EBE554C394144002A7
:03101200D322C323
:0110150022B8
:1011C800C208C2B70000D2B7000030B704D2088006
:0C11D80002C2087F057E001212C4A208AB
:0111E40022E8
:1010F600E4F54CF54DFFF54C1211C8E433FFC4334B
:1011060033335480FEE54DC3134EF54D054CE54C87
:07111600C3940840E3AF4D54
:01111D0022AF
:021056008F1AEF
:10105800E4F51BF51CF51BE51A5401F51CE51AC34C
:1010680013F51AE51C600FC2B70000D2B77F067EE1
:10107800001212C4800DC2B77F067E001212C4D2BD
:0C108800B70000051BE51BC3940840CB1B
:011094002239
:10127B00121269120FD27FCC1210567F44021056F5
:0712E100121269120FD22264
:100A4300E4900034F0A3F0A3F0A3F012127B12128F
:100A530069120FD27FCC1210567FBE12105612109D
:100A6300F6900035EFF01210F6900034EFF0FEA38D
:100A7300E07C002400FFEC3EFEA3F0A3EFF0EE5475
:100A8300F8FEEE900036B4F827E0FEA3E0F4FFEEA4
:100A9300F4FEEF2401FFE43EFE900036F0A3EFF0F6
:100AA300FDAC06E4120455E4FBFA798078BD8010AE
:100AB300E0FCA3E0FDE4120455E4FBFA7980783D01
:100AC30012034A900030120622900030E0FCA3E0AB
:070AD300FDA3E0FEA3E0FF1C
:010ADA0022F9
:0912CF00D288D2A8D2AFD2B2221B
:0300030002065A98
:10065A00C0E0C0F0C083C082C0D075D000C000C066
:0D066A0001C002C003C004C005C006C007E7
:10067700752600752700752800752900752A003032
:10068700B2030207737527037528E820B21EE52811
:10069700452760187F017E001212C4E528152870CF
:1006A700021527E528452770E202077320B20302E7
:1006B70007597527017528F430B21EE528452760CC
:1006C700187F017E001212C4E5281528700215272D
:1006D700E528452770E2020773752900752A00751A
:1006E700270275285820B21DE528452760177F0186
:1006F7007E001212C4E528152870021527E5284543
:100707002770E2806775270075281430B2127F0AB8
:100717007E001212C40526E526D3941440ED804CC2
:1007270074222529F8C000E6C313D000F6E526C3D6
:100737009408400974222529F8E64480F6752600B6
:10074700052AE52AC3940840960529E529C3940498
:10075700408AE525F465246013752900742225294C
:0C076700F876000529E529B404F28000B2
:10077300D007D006D005D004D003D002D001D000DA
:0B078300D0D0D082D083D0F0D0E03284
:1009A50041542B43574A41505F4355523D22004124
:1009B500542B43574D4F44455F4355523D310D0A26
:1009C500004F4B0041542B43574A41505F4355520A
:1009D5003D22686868222C226261626162616261FF
:1009E500220D0A0041542B4349504D55583D300DB9
:1009F5000A0041542B4349504D4F44453D310D0AA2
:100A05000041542B43495053544152543D225443C1
:100A150050222C223139322E3136382E3133372EB1
:100A250031222C393939390D0A0041542B434950AB
:0E0A350053454E440D0A000D0A002B2B2B00DA
:050DFB00C109015500D3
:101242004389207598507587808F8D8F8BD2ACD251
:04125200AFD28E2267
:0E12B600C2ACC2998F993099FDC299D2AC2278
:1010CC008B3D8A3E893FAB3DAA3EA93F1205CEFF20
:1010DC0060171212B67F147E001212C47401253FE1
:0A10EC00F53FE4353EF53E80DD22BD
:03002300020900CF
:10090000C0E0C0F0C083C082C0D075D000C000C0BD
:0D09100001C002C003C004C005C006C0073E
:10091D0030986AE555700DFE7F14FD7B017A0079E4
:10092D001C12062EC298AF550555741C2FF582E486
:10093D003400F583E599F0741A2555F582E43400F9
:10094D00F583E0B40D2D741B2555F582E43400F5C7
:10095D0083E0B40A1E741A2555F582E43400F5833C
:10096D00E4F0741B2555F582E43400F583E4F0F5CD
:0D097D0055D209E555D3941440037555007B
:10098A00D007D006D005D004D003D002D001D000C1
:0B099A00D0D0D082D083D0F0D0E0326B
:060E7D008B338A34893535
:100E8300E4F539F53A753B03753CE87540FF754168
:100E9300097542A5120D19E94A4B6006753B1F758A
:100EA3003C40AB33AA34A9351210CC20091C053AB7
:100EB300E53A700205397F017E001211AAD3E53AA3
:100EC300953CE539953B40E3D322C20985364085FD
:100ED30037418538427B017A00791C120D19E94AA2
:040EE3004B60C8C3D5
:010EE70022E8
:101095007536FF7537097538C67BFF7A0979B4123D
:1010A5000E7D920A300A037F01227536FF753709D6
:1010B5007538C67BFF7A0979C9120E7D920A300A06
:0610C500037F02227F0000
:0110CB002202
:100EE8007536FF7537097538C67BFF7A0979E912B7
:100EF8000E7D920A300A037F01227536FF75370985
:100F08007538C67BFF7A0979F7120E7D920A300A86
:100F1800037F02227536FF7537097538C67BFF7A5D
:100F28000A7906120E7D920A300A037F03227F0097
:010F38002296
:1011E5007536FF7537097538C67BFF7A0A792F1270
:0C11F5000E7D920A300A037F01227F0069
:0112010022CA
:10118A007BFF7A0A793C1210CC7F647E001211AA86
:10119A007BFF7A0A793F1210CC7FE87E030211AAFC
:10111E007FFD12124212118A121095EF60037F01A9
:10112E0022120EE8EF60037F02221211E5EF600338
:05113E007F03227F0089
:011143002289
:0912D8008B1D8A1E891F7F002274
:0100220022BB
:0612F400AE071212B62243
:0B12C400EF1FAC0670011E4C70F622FC
:1011AA00D3EF9400EE940040147D6E7C00ED1D7028
:0D11BA00011CED4C70F7EF1F70E61E80E386
:0111C7002205
:090E0000014900014A00014B0008
:101256005389F0438901D28C758CF8758ACDD2AF4B
:03126600D2A922E8
:03000B00020F39A8
:040F3900C0E0C0D084
:100F3D000549054A758CF8758ACDD204D200E54A6B
:100F4D00B4FA05754A00D20130020EB2A5054BE583
:100F5D004BB49605754B00C202E549B402147549B0
:100F6D000030030EB2A5054BE54BB43205754B00B1
:080F7D00C203E50A6002050B46
:050F8500D0D0D0E032E5
:101202003F065B4F666D7D077F6F777C395E797134
:081212003F065B4F666D7D078E
:030E09000156008F
:100E0D00782B7C007D007BFF7A1279127E007F08A3
:100E1D001205A812125612111EEF601214FF740162
:100E2D00A807088002C333D8FCF4F5A080FE120099
:100E3D0026EFF4602DEF75F00A8490120293FE7484
:100E4D002B2556F8A606EF75F00A84E5F093FF748E
:100E5D002C2556F8A60705560556E556B40803E4A5
:100E6D00F5567B007A00792B120B7212002280BE90
:10034A00EC4D6011E8497017ED33EC3304600DE4AD
:10035A00FCFFFEFD22E933E8330470F80204C312FD
:10036A00048E58046009E4CC2481500628500902FE
:10037A0004CD2840030204CAC0E0EB4A7044B980A5
:10038A0006D0E0FB0204B9EF4E701CBD8008EBFFFB
:10039A00EAFEE9FD80EBE98DF0A4FEE5F002043304
:1003AA00E9CDF9EAFEEBFFEF89F0A4FCE5F0CE898E
:1003BA00F0A42EFFE435F0CD89F0A42DFEE435F04B
:1003CA008067EF4E7005BD80D780C3EF8BF0A4AC79
:1003DA00F0EE8BF0A42CFCE435F0F8EF8AF0A42CB4
:1003EA00E5F038FCE433CB8DF0A42CFCE5F03BF8C7
:1003FA00EE8AF0A42CFCE5F038F8E433CF89F0A4B7
:10040A002CFCE5F038CF3400CE89F0A42FFFE5F0BC
:10041A003EFEE433C98DF0A42EFEE5F039CD8AF014
:10042A00A42FFFE5F03EFEE43DFD33D0E0FB50078C
:10043A000BBB000F0204CDEC2CFCEF33FFEE33FEB6
:06044A00ED33FD0204A5E4
:1004500075F020800E75F010800575F0087D007E27
:10046000007F003392D530D503120614EC334010D0
:10047000EF33FFEE33FEED33FDEC33FCD5F0ED2230
:0E048000E5F0247EA2D513CC92E7CDCEFF226C
:10048E00E9D2E7C933E833F892D5EDD2E7CD33ECB4
:07049E0033FC5002B2D5222D
:1004A500EC30E7100FBF000C0EBE00080DBD0004B8
:1004B5000BEB6014A2D5EB13FCED92E7FD2274FF64
:1004C500FCFDFEFF22E480F8A2D574FF13FC7D80BD
:0304D500E480EFD1
:03000000020C07E8
:0C0C0700787FE4F6D8FD758156020C4E93
:1004D800E709F608DFFA8046E709F208DFFA803E06
:1004E80088828C83E709F0A3DFFA8032E309F608F3
:1004F800DFFA8078E309F208DFFA807088828C835B
:10050800E309F0A3DFFA806489828A83E0A3F6080E
:10051800DFFA805889828A83E0A3F208DFFA804CE8
:1005280080D280FA80C680D4806980F280338010BF
:1005380080A680EA809A80A880DA80E280CA803328
:1005480089828A83ECFAE493A3C8C582C8CCC583A0
:10055800CCF0A3C8C582C8CCC583CCDFE9DEE78070
:100568000D89828A83E493A3F608DFF9ECFAA9F0EF
:10057800EDFB2289828A83ECFAE0A3C8C582C8CC45
:10058800C583CCF0A3C8C582C8CCC583CCDFEADE5E
:10059800E880DB89828A83E493A3F208DFF980CCC0
:1005A80088F0EF60010E4E60C388F0ED2402B404B9
:1005B8000050B9F582EB2402B4040050AF23234560
:0605C80082239005287358
:1005CE00BB010689828A83E0225002E722BBFE022B
:0905DE00E32289828A83E493225E
:1005E700BB010CE58229F582E5833AF583E02250C9
:1005F70006E92582F8E622BBFE06E92582F8E22213
:0D060700E58229F582E5833AF583E493222C
:0E061400C3E49FFFE49EFEE49DFDE49CFC22F7
:0C062200ECF0A3EDF0A3EEF0A3EFF0224B
:100D19008B3D8A3E893FAB40AA41A9421205CE606C
:100D290063AB3DAA3EA93F1205CE605F854043856E
:100D390041448542458B468A478948AB43AA44A921
:100D4900451205CEFF6023AB46AA47A9481205CE36
:100D59006F7017042545F545E43544F544740125BC
:100D690048F548E43547F54780D1AB43AA44A9453E
:100D79001205CE7002800D7401253FF53FE4353E22
:100D8900F53E809DAB3DAA3EA93F227B007A0079C2
:020D9900002236
:10062E00EF4E6012EF60010EEDBB010B89828A83E3
:10063E00F0A3DFFCDEFA2289F05007F709DFFCA9F0
:0C064E00F022BBFEFCF309DFFCA9F02247
:100C1300020E0DE493A3F8E493A34003F68001F2DC
:100C230008DFF48029E493A3F85407240CC8C333E2
:100C3300C4540F4420C8834004F456800146F6DFB1
:100C4300E4800B0102040810204080900D9BE47E99
:100C5300019360BCA3FF543F30E509541FFEE493A6
:100C6300A360010ECF54C025E060A840B8E493A36D
:100C7300FAE493A3F8E493A3C8C582C8CAC583CA98
:100C8300F0A3C8C582C8CAC583CADFE9DEE780BE50
:010E0C0000E5
:00000001FF
