:0400030002080000EF
:10012500E4FEEEC39F5009E4FD0DBD7FFC0E80F299
:0101350022A7
:10010B008F0C8D0D8B0A85110B5389F0438901D20E
:0A011B008C8F8C8D8AD2AFD2A922FE
:030008008F0B2239
:1000D300C200E4FC7A647B64F5117DF07FFF1201BA
:1000E3000B20000A0CECC39A4010D200800C3000A5
:1000F300091CECD394005002C200ECFF7E001200F6
:08010300087F0112012580D9DB
:03000B0002009A56
:04009A00C0E0C0D032
:10009E000509E50970020508850C8C850D8AC3E5F6
:1000AE0009950AE50894004006750800750900D305
:1000BE00E509950BE50894005004D2A18002C2A177
:0500CE00D0D0D0E032AB
:0300000002000EED
:0C000E00787FE4F6D8FD758120020055D3
:10001A000200D3E493A3F8E493A34003F68001F229
:10002A0008DFF48029E493A3F85407240CC8C333E7
:10003A00C4540F4420C8834004F456800146F6DFB6
:10004A00E4800B0102040810204080900003E47E43
:10005A00019360BCA3FF543F30E509541FFEE493AB
:10006A00A360010ECF54C025E060A840B8E493A372
:10007A00FAE493A3F8E493A3C8C582C8CAC583CA9D
:10008A00F0A3C8C582C8CAC583CADFE9DEE780BE55
:0100070000F8
:00000001FF
