:1000D8003F065B4F666D7D077F6F777C395E797170
:06000300C100020800002C
:0F00E8005389F0438902D28C758C1A758A1A22BB
:1000BB00E4FFD2AFD2A91200E8EF9000D893F580FD
:0D00CB003000F60FBF1002E4FFC20080EC11
:03000B0002009A56
:04009A00C0E0C0D032
:10009E000509E50970020508B4A00DE508B40F08BE
:0800AE00D2007508007509007D
:0500B600D0D0D0E032C3
:0300000002000EED
:0C000E00787FE4F6D8FD758120020055D3
:10001A000200BBE493A3F8E493A34003F68001F241
:10002A0008DFF48029E493A3F85407240CC8C333E7
:10003A00C4540F4420C8834004F456800146F6DFB6
:10004A00E4800B0102040810204080900003E47E43
:10005A00019360BCA3FF543F30E509541FFEE493AB
:10006A00A360010ECF54C025E060A840B8E493A372
:10007A00FAE493A3F8E493A3C8C582C8CAC583CA9D
:10008A00F0A3C8C582C8CAC583CADFE9DEE780BE55
:0100090000F6
:00000001FF
