:03016B0001080088
:10015300E4FEEEC39F5009E4FD0DBD7FFC0E80F26B
:010163002279
:10000300EF7030C374089508FE74FEA806088002DA
:10001300C313D8FCFEAD0874FEA805088002C333E1
:10002300D8FC4EF5A0E508640860030200BFF5089C
:100033000200BFBF012CC374089508FE747FA80695
:10004300088002C333D8FCFEAD08747FA80508807E
:1000530002C313D8FC4EF5A0E5086408705EF508EA
:10006300805AEF64027055E508C394075021C374A6
:10007300089508FF74FEA807088002C313D8FCFF85
:10008300AE0874FEA806088002C333D8FC8022C3DE
:10009300740F9508FF747FA807088002C333D8FC48
:1000A300FFE50824F9FE747FA806088002C313D86D
:1000B300FC4FF5A0E508B40E03E4F5087FC8120170
:0300C300530508DA
:0100C6002217
:070164007F0212000380F985
:030000000200C734
:0C00C700787FE4F6D8FD75810802010E78
:1000D300020164E493A3F8E493A34003F68001F2DE
:1000E30008DFF48029E493A3F85407240CC8C3332E
:1000F300C4540F4420C8834004F456800146F6DFFD
:10010300E4800B010204081020408090016BE47E20
:10011300019360BCA3FF543F30E509541FFEE493F1
:10012300A360010ECF54C025E060A840B8E493A3B8
:10013300FAE493A3F8E493A3C8C582C8CAC583CAE3
:10014300F0A3C8C582C8CAC583CADFE9DEE780BE9B
:01016E000090
:00000001FF
