:0B000E003F065B4F666D7D077F6F4073
:10019A00010B00010C00010A00C100C101010800A5
:0301AA0001090048
:0F01AE005389F0438901D28C758CF8758ACD2264
:0F01BD0053890F438910D28E758DDCE4F58B22A8
:10014700300120C201050AE50AB43C17E4F50A05A7
:100157000CE50CB43C0DE4F50C050BE50BB41803EA
:04016700E4F50B228E
:10001E00E508B4080040030200A890002FF8282835
:10002E007302004702005102005B02006302006D82
:10003E00020077020083020094D2A4D2A3D2A2E5DA
:10004E000B803AD2A4D2A3C2A2E50B8041D2A4C2A5
:10005E00A3D2A2801AD2A4C2A3C2A2E50C801EC251
:10006E00A4D2A3D2A2E50C8025C2A4D2A3C2A29090
:10007E000018E48022C2A4C2A3D2A2E50A75F00A37
:10008E008490000E8011C2A4C2A3C2A2E50A75F02C
:10009E000A84E5F090000E93F58030000FC200E464
:0C00AE00F5800508E508B40803E4F50837
:0100BA002223
:10018600D2AFD2A9D2AB1201AE1201BD12014712F3
:04019600001E80F8CF
:03000B000201CC23
:0901CC00758CF8758ACDD2003261
:03001B0002016B74
:04016B00C0E0C0D060
:10016F000509758DDC758B00E509B464057509000B
:02017F00D201AB
:05018100D0D0D0E032F7
:030000000200BB40
:0C00BB00787FE4F6D8FD75812002010278
:1000C700020186E493A3F8E493A34003F68001F2C8
:1000D70008DFF48029E493A3F85407240CC8C3333A
:1000E700C4540F4420C8834004F456800146F6DF09
:1000F700E4800B010204081020408090019AE47EFE
:10010700019360BCA3FF543F30E509541FFEE493FD
:10011700A360010ECF54C025E060A840B8E493A3C4
:10012700FAE493A3F8E493A3C8C582C8CAC583CAEF
:10013700F0A3C8C582C8CAC583CADFE9DEE780BEA7
:0101AD000051
:00000001FF
