:10116200C10A014600014700C109C10CC10B01447B
:101172000001450044000000000000500004FFFF91
:10118200FFFFFFFFFFFFFFFFFFFFFFFFFFFF440027
:0C119200140000000044001800000000E1
:100382007FFFE54414600F1460111460132403709E
:100392001275907F800D7590BF80087590DF800385
:1003A2007590EF200A0302069DC20AE54425E02566
:1003B200E02404F582E43400F583E025E0FEA29314
:1003C200E4334EFEE54425E025E02404F582E434DE
:1003D20000F583EEF0E54425E025E02405F582E40E
:1003E2003400F583E025E0FEA292E4334EFEE544BC
:1003F20025E025E02405F582E43400F583EEF0E5FE
:100402004425E025E02406F582E43400F583E02566
:10041200E0FEA291E4334EFEE54425E025E0240609
:10042200F582E43400F583EEF0E54425E025E0248E
:1004320007F582E43400F583E025E0FEA290E43380
:100442004EFEE54425E025E02407F582E43400F57C
:1004520083EEF0E4FE74002544F582E43400F58373
:10046200E0FDA806088002C313D8FC20E03FE54463
:1004720025E025E02404F582E43400F583E5822EAC
:10048200F582E43583F583E0702374002544F58218
:10049200E43400F5837401A806088002C333D8FC53
:1004A2004DF0E54425E025E02E04FF8038E54425A3
:1004B200E025E02404F582E43400F583E5822EF59C
:1004C20082E43583F583E0B4FF1B74002544F58292
:1004D200E43400F583E0FD7401A806088002C3330A
:1004E200D8FCF45DF00EEE64046003020457741845
:1004F2002545F582E43400F583E060526F601D7497
:10050200182545F582E43400F583E4F0741425459A
:10051200F582E43400F583E4F0020674741825458C
:10052200F582E43400F583E02410FF74002544F5DD
:1005320082E43400F583E0FEEF145403FD7401A855
:1005420005088002C333D8FCF45EF0020674EFF4AF
:10055200700302064BAE45E546A806088002C313A7
:10056200D8FC20E03D74142545F582E43400F5837F
:10057200EFF0E4F547AE4504A806088002C333D87D
:10058200FC424674002544F582E43400F583E0FE23
:10059200EF145403FD7401A805088002C333D8FC8C
:1005A200806074142545F582E43400F583E0B507D4
:1005B2002474002544F582E43400F583E0FEEF1450
:1005C2005403FF7401A807088002C333D8FCF45E09
:1005D200F07FFF803074142545F582E43400F58302
:1005E200EFF0E4F54774002544F582E43400F58326
:1005F200E0FEEF145403FD7401A805088002C33322
:10060200D8FCF45EF0E547C394FA4066AF45740146
:10061200A807088002C333D8FCF452467414254557
:10062200F582E43400F583E0FF74182545F582E491
:100632003400F583EFF074182545F582E43400F5B3
:1006420083E02410FFD20B802974182545F582E43B
:100652003400F583E4F074142545F582E43400F5A2
:1006620083E4F0AE4504A806088002C333D8FCF444
:100672005246EFC39411400FEFD394205009300932
:1006820004C20980027FFF0545E545B40403E4F591
:10069200450544E544B40403E4F544EFC394115022
:0306A20002D20C75
:0106A5002232
:0C119E00C10FC10E011D00C10D011E009B
:100D0D00300F0FC20F051DE51DB40803E4F51DE4FA
:100D1D00F580300E0EC20E051EE51EB41E05E4F55F
:100D2D001EB20D300D24E50CB40110E51D640260FA
:100D3D0005E51DB40314751D04800FE50CB4020AFE
:100D4D00E51D6003B40103751D02E51DB4080050D7
:100D5D007B900D65F8282873020D7D020D89020D1B
:100D6D0094020D9F020DAA020DB5020DC0020DCB0E
:100D7D00D2A4D2A3D2A21209EFF58022D2A4D2A37B
:100D8D00C2A29000018040D2A4C2A3D2A2900002C0
:100D9D008035D2A4C2A3C2A2900003802AC2A4D2DD
:100DAD00A3D2A2900004801FC2A4D2A3C2A290001D
:100DBD00058014C2A4C2A3D2A29000068009C2A4C9
:0C0DCD00C2A3C2A2900007120A08F58021
:010DD90022F7
:0711AA00C114C113011F0075
:09180900900042EFF0A3EDF02283
:06183200900043EFF022DC
:10167600301425C21420130D051FE51FC3946440C2
:1016860012D213800E30130B151FE51FD394005092
:0816960002C213AF1F1218324B
:01169E002229
:1014D300C3E50E9512FFE50D9511FE7C007D031209
:1014E3000A35EF2514FFEC3EFEC3EF9464EE6480EF
:1014F300948040067E007F64800ED3EF9400EE64F8
:0B1503008094805003E4FEFF021832C9
:0811B100C11602480001C1153E
:1010BE00201603021161C216E54954072401FFE40C
:1010CE0033FE7069EF14B4080050629010E775F0AB
:1010DE0003A4C58325F0C583730210FF0211050218
:1010EE00110B02111502111B02112502112F0211F3
:1010FE0033D2B3C2A7800AD2B3D2A78004C2B3D26E
:10110E00A7C2A6C2A08026C2B3D2A78004C2B3C211
:10111E00A7D2A6C2A08016C2B3C2A7D2A6D2A08062
:10112E000CC2B38002D2B3C2A7C2A6D2A02015139E
:10113E000549E54970020548B4D018E548B40713CF
:10114E00D21522E549154970021548E54945487002
:03115E0002C215B5
:01116100226B
:0E17E000C2B77F4B12182BD2B77F0202182B14
:10149300E4F53030B710E530C39414500905307FBC
:1014A3000112182B80EDE530C394144002D322E4DB
:1014B300F53020B710E530C39414500905307F018F
:0F14C30012182B80EDE530C394144002D322C3DE
:0114D20022F7
:10178E00C200C2B70000D2B7000030B704D200804A
:0A179E0002C2007F0512182BA20002
:0117A800221E
:1016C800E4F530F531FFF53012178EE433FFC433FB
:1016D80033335480FEE531C3134EF5310530E53020
:0716E800C3940840E3AF3199
:0116EF0022D8
:02150E008F301C
:10151000E4F531F532F531E5305401F532E530C30B
:1015200013F530E532600DC2B70000D2B77F061266
:10153000182B800BC2B77F0612182BD2B7000005FC
:0815400031E531C3940840CFEE
:011548002280
:1017D0001217E01214937FCC12150E7F4402150EDF
:071824001217E012149322D9
:10130B00E4FFF52FFBFAC28C1217D01217E0121460
:10131B00937FCC12150E7FBE12150E1216C88F2F8F
:10132B001216C8EFFE7C00E4252FFBEC3EFA54F8B6
:10133B00FEEEB4F823EBF4FFEAF4FEEF2401FBE43A
:10134B003EFA7CFF7DFBAF03FE120A35EF7803CE2E
:10135B00C313CE13D8F98015AE02AF037C007D0505
:10136B00120A35EF7803CEC313CE13D8F9F52E8EB0
:07137B002DD28CAE2DAF2E28
:011382002248
:0211B900C1195A
:09181200D288D2A8D2AFD2B222D2
:030003000206A64C
:1006A600C0E0C0F0C083C082C0D075D000C000C01A
:0D06B60001C002C003C004C005C006C0079B
:1006C300752800752900752A00752B00752C0030DC
:1006D300B2030207BA752903752AE820B21CE52A7A
:1006E300452960167F0112182BE52A152A70021579
:1006F30029E52A452970E40208AE20B20302079FC8
:10070300752901752AF430B21CE52A452960167F44
:100713000112182BE52A152A70021529E52A452905
:1007230070E40208AE752B00752C00752902752A3A
:100733005820B21CE52A452960167F0112182BE5C3
:100743002A152A70021529E52A452970E40208AE04
:10075300752900752A1430B2117F0A12182B052847
:10076300E528D3941440EF0208AE7424252BF8C077
:1007730000E6C313D000F6E528C3940840097424A7
:10078300252BF8E64480F6752800052CE52CC39448
:10079300084098052BE52BC39404408CE527F465AA
:1007A300266014752B007424252BF87600052BE5A1
:1007B3002BB404F20208AEE526C4540FC454F0FB74
:1007C300E526540F42032019030208AEC219EB6455
:1007D3000C702AE50F045403F50F7009F50A750B25
:1007E30001F50C8058E50F640360030208AC850D26
:1007F30011850E12900043E0F5140208ACBB1818E3
:10080300E50F6014E50A2401FFE433FE7C007D0359
:10081300120A478D0A0208ACBB5E12E50FB4010D44
:10082300E50B75F00384E5F004F50B807CBB08133E
:10083300E50F600FE50C045403F50C706CF513F52C
:10084300108066EB641C701DE54A641C6017E50F9D
:100853006013E50CB40106E51024018020E50C6467
:10086300027046802CEB641C703AE54A641C7034B9
:10087300E50F6030E50CB40113E5102405FFE43304
:10088300FE7C007D3C120A478D10801DE50CB402EE
:1008930018E5132401FFE433FE7C007D64120A474C
:0B08A3008D138005BB5A02B2128B4A75
:1008AE00D007D006D005D004D003D002D001D0009E
:0B08BE00D0D0D082D083D0F0D0E03248
:100F600041542B43574A41505F4355523D22004163
:100F7000542B43574D4F44455F4355523D310D0A65
:100F8000004F4B0041542B43574A41505F43555249
:100F90003D22686868222C2262616261626162613E
:100FA000220D0A0041542B4349504D55583D300DF8
:100FB0000A0041542B4349504D4F44453D310D0AE1
:100FC0000041542B43495053544152543D22544301
:100FD00050222C223139322E3136382E3133372EF1
:100FE00031222C393939390D0A0041542B434950EB
:100FF00053454E440D0A000D0A002B2B2B004531A2
:10100000004532004533004B31004B32004B33007A
:091010004B34004B35004B360057
:0511BB00C11A014B0008
:1017A9004389207598507587808F8D8F8BD2ACD2E5
:0417B900AFD28E22FB
:0E17EE00C2ACC2998F993099FDC299D2AC223B
:10164A008B388A39893AC28CAB38AA39A93A120935
:10165A00EFFF60151217EE7F0A12182B7401253A54
:0C166A00F53AE43539F53980DFD28C22E6
:03002300021019AF
:10101900C0E0C0F0C083C082C0D075D000C000C09D
:0D10290001C002C003C004C005C006C0071E
:1010360030986AE54B700DFE7F0FFD7B017A0079D3
:1010460033120A9CC298AF4B054B74332FF582E4DA
:101056003400F583E599F07431254BF582E43400CC
:10106600F583E0B40D2D7432254BF582E43400F59A
:1010760083E0B40A1E7431254BF582E43400F5830F
:10108600E4F07432254BF582E43400F583E4F0F5A0
:0D1096004BD21AE54BD3940F4003754B006D
:1010A300D007D006D005D004D003D002D001D000A1
:0B10B300D0D0D082D083D0F0D0E0324B
:061383008B2E8A2F893039
:10138900E4F534F5357536037537E8753BFF753C7B
:101399000F753D60121289E94A4B600675361F7553
:1013A9003740AB2EAA2FA93012164A201A1A053532
:1013B900E535700205347F01121734D3E5359537C9
:1013C900E534953640E5D322C21A85313B85323C56
:1013D90085333D7B017A007933121289E94A4B60E2
:0213E900CAC375
:0113EB0022DF
:101549007531FF75320F7533817BFF7A0F796F1211
:10155900138392003000037F01227531FF75320F2A
:101569007533817BFF7A0F798412138392003000DF
:06157900037F02227F0047
:01157F002249
:101442007531FF75320F7533817BFF7A0F79A412E4
:10145200138392003000037F01227531FF75320F32
:101462007533817BFF7A0F79B212138392003000B9
:10147200037F02227531FF75320F7533817BFF7A4C
:101482000F79C112138392003000037F03227F0081
:011492002237
:09181B007BFF7A0F79EA02164AFC
:101772007BFF7A0F79F712164A7F641217347BFFC8
:0C1782007A0F79FA12164A7FE802173439
:101714007FFD1217A9121772121549EF60037F019A
:0F17240022121442EF60037F022212181B7F0073
:011733002293
:100B1000E4F531753202753BFF753C0F753DFE7B88
:100B2000017A0079331212898B2E8A2F893074034F
:100B30002530F530E4352FF52FAF321532EF602533
:100B4000AB2E0530E530AA2F7002052F14F91209DB
:100B5000EF24D02531F531E53260DEE53175F00A5C
:100B6000A4F53180D4E531C394185003853108E4ED
:100B7000F531753202753BFF753C10753D017B0107
:100B80007A0079331212898B2E8A2F8930740325CB
:100B900030F530E4352FF52FAF321532EF6025AB4D
:100BA0002E0530E530AA2F7002052F14F91209EF37
:100BB00024D02531F531E53260DEE53175F00AA447
:100BC000F53180D4E531C3943B5003853109E4F518
:100BD00031753202753BFF753C10753D047B017A1F
:100BE0000079331212898B2E8A2F893074032530B5
:100BF000F530E4352FF52FAF321532EF6025AB2EEF
:100C00000530E530AA2F7002052F14F91209EF24E0
:100C1000D02531F531E53260DEE53175F00AA4F515
:0D0C20003180D4E531C3943B50038531157C
:010C2D0022A4
:101754008B2E8A2F89308B3B8A3C893D7B017A0012
:0E1764007933121289E94A4B6002D322C32264
:1008C900E4F52D201A04C21A80F97BFF7A10790702
:1008D9001217549200300003752D017BFF7A1079AD
:1008E9000A1217549200300003752D027BFF7A100B
:1008F900790D1217549200300003752D037BFF7A8E
:100909001079101217549200300003752D047BFFE3
:100919007A1079131217549200300003752D057B54
:10092900FF7A1079161217549200300003752D06BC
:10093900E52D64017028E50F045403F50F7009F5DE
:100949000A750B01F50C8059E50F64036003020970
:10095900EE850D11850E12900043E0F51422E52D68
:10096900B40216E50F6012E50A2401FFE433FE7CA8
:10097900007D03120A478D0A22E52DB40311E50F04
:10098900B4010CE50B75F00384E5F004F50B22E5E1
:100999002DB40412E50F600EE50C045403F50C7038
:1009A90044F513F51022E52D64057032E50F602E2C
:1009B900E50CB40112E5102401FFE433FE7C007D4F
:1009C9003C120A478D1022E50CB40219E5132401E3
:1009D900FFE433FE7C007D64120A478D1322E52D66
:0509E900B40602B21289
:0109EE0022E6
:06183800AE071217EE22BC
:07182B00AE071FEE70FA2268
:101734007E00D3EF9400EE940040147D6E7C00EDA7
:0F1744001D70011CED4C70F7EF1F70E61E80E367
:011753002273
:1011C000011600011700011800011900011A0001A1
:0511D0001B00011C00E2
:1017BD005389F0438901D28C758CFF758AA4D2AF01
:0317CD00D2A9227C
:03000B00020EA53D
:0D0EA500C0E0C083C082C0D075D000C0077F
:100EB2000516758CFF758AA4051C900042E0FFE5BB
:100EC2001CC39F4003751C00900043E0FFE51CD348
:100ED2009F5004D2A18002C2A1E51664147074F579
:100EE20016051A0517D20FD20A300B0EB2A5051B32
:100EF200E51BB49605751B00C20BE51AB402147506
:100F02001A00300C0EB2A5051BE51BB41905751BA2
:100F120000C20CE54660020547E50AB40202D21699
:100F2200E5176404702DF5170518D214D20EE50AE0
:100F3200B40102D216E518B47D197518000519D24C
:100F420017D218D209D219D211E519B402057519AE
:030F520000D210BA
:0B0F5500D007D0D0D082D083D0E03293
:1011D500011300011000020D0000021100000114AE
:1011E50000010F00010A00010B01010C00C111C132
:0311F50010C11214
:101619006765742074696D650025632C25632C2525
:10162900632C25632C25632C25632C25632C2563CA
:10163900003F065B4F666D7D077F6F777C395E796A
:01164900712F
:0411F800C118C11742
:101580001217BD7D647F64121809121824121812F4
:101590001217148F2DE52D70187FFA1217347BFF68
:1015A0007A16791912164A201A04C21A80F9120BF7
:0315B00010AF2D4C
:0115B3002215
:1016F000301820C2180515E515B43C17E4F515059A
:1017000009E509B43C0DE4F5090508E508B418033A
:04171000E4F50822D2
:1015E800E50C6403702A301727C217E510701FE551
:1015F800137015F50FFF121832E4F50A750B01F593
:101608000CF513F510C21222151375103B22151094
:0116180022AF
:100DDA00120382EF64017028E50F045403F50F70C3
:100DEA0009F50A750B01F50C8053E50F64036003DE
:100DFA00020EA4850D11850E12900043E0F514220F
:100E0A00BF0216E50F6012E50A2401FFE433FE7CF7
:100E1A00007D03120A478D0A22BF0311E50FB401B0
:100E2A000CE50B75F00384E5F004F50B22BF041200
:100E3A00E50F600EE50C045403F50C705DF513F52F
:100E4A001022EF64057017E50F6013E50CB4010674
:100E5A00E5102401801AE50C6402703E8025EF64D7
:100E6A00157032E50F602EE50CB40112E510240569
:100E7A00FFE433FE7C007D3C120A478D1022E50C0C
:100E8A00B40217E5132401FFE433FE7C007D6412EB
:0A0E9A000A478D1322BF0602B212B0
:010EA400222B
:1015B4001216F01215E8E50F7002800DE50FB40164
:1015C4000EE50B75F028A424E2FF1218328012E510
:1015D4000FB402051216768008E50FB40303121443
:0415E400D30210BE60
:100C2E00E4F531E50C7024E50875F00A8490163A67
:100C3E0093F52DE50875F00A84E5F093F52EE50998
:100C4E0075F00A8493F52FE5098022E51375F00AF5
:100C5E008490163A93F52DE51375F00A84E5F0931A
:100C6E00F52EE51075F00A8493F52FE51075F00A50
:100C7E0084E5F093F53020126BAE0DAF0E7C037D44
:100C8E00E8120A47AA04AB057D647C00AF03AE02EE
:100C9E00120A47743A2FF58274163EF583E493F5E3
:100CAE00327D647C00AF03AE02120A47AA04AB0584
:100CBE007D0A7C00AF03AE02120A47743A2FF5820A
:100CCE0074163EF583E493F5334333807D0A7C003E
:100CDE00AF03AE02120A47743A2DF58274163CF534
:100CEE0083E4800FE50F90163A93F532E50A93F5FB
:0F0CFE0033E50B93F5347B007A00792D020D0D51
:0D17FC00301109C21112130B8E0D8F0E2239
:1013EC007530FF753116753222E50F2430F533E573
:1013FC000A2430F534E50B2430F535E50C2430F5B2
:10140C0036E51375F00A842430F537E51375F00AC8
:10141C0084E5F02430F538E51075F00A842430F5B5
:10142C0039E51075F00A84E5F02430F53A7B017A41
:06143C0000791C02008291
:10000E00301011C2101213EC7B017A00791C1216FB
:05001E004A1208C9228E
:10169F00121580EF601214FF7401A807088002C3AF
:1016AF0033D8FCF4F5A080FE120DDA1217FC1200ED
:0916BF000E1215B4120C2E80EF7E
:030000000211FDED
:0C11FD00787FE4F6D8FD75814B021244A7
:1009EF00BB010689828A83E0225002E722BBFE0206
:0909FF00E32289828A83E4932239
:100A0800BB010CE58229F582E5833AF583E02250A3
:100A180006E92582F8E622BBFE06E92582F8E222ED
:0D0A2800E58229F582E5833AF583E4932207
:100A3500EF8DF0A4A8F0CF8CF0A428CE8DF0A42ED5
:020A4500FE228F
:100A4700BC000BBE0029EF8DF084FFADF022E4CC93
:100A5700F875F008EF2FFFEE33FEEC33FCEE9DEC5C
:100A6700984005FCEE9DFE0FD5F0E9E4CEFD22EDA2
:100A7700F8F5F0EE8420D21CFEADF075F008EF2FEC
:100A8700FFED33FD4007985006D5F0F222C398FDDD
:050A97000FD5F0EA227A
:10002600E53C2430F8E6053C22782D30070278308E
:10003600E475F001120ADA0209EF2000EB7F2ED2F6
:10004600008018EF540F2490D43440D4FF30040BB2
:10005600EF24BFB41A0050032461FFE53D6002158A
:100066003D0540E5407002053F30070D782DE475EB
:10007600F001120ADAEF020AC80218387403D2072E
:100086008003E4C207F53C8B2D8A2E892FE4F53DCB
:10009600F53FF540E53D60077F2012006180F5756C
:1000A6003EFFC201C200C202C203C205C206C208A6
:1000B60012002FFF700D3007057F00120072AF404F
:1000C600AE3F22B4255FC2D5C20412002FFF24D052
:1000D600B40A00501A75F00A783D30D50508B6FF07
:1000E6000106C6A426F620D5047002D20380D924C0
:1000F600CFB41A00EF5004C2E5D204020272D20154
:1001060080C6D20080C0D20280BCD2D580BAD205C9
:1001160080B47F201200612002077401B53D0040C3
:10012600F1120026FF12006102009AD208D2068060
:1001360095120026FB120026FA120026F94A4B7089
:100146000679437A037BFF20022EE53D602A7E0076
:100156008E82758300120A0860060EEE653E70F008
:10016600C2D5EBC0E0EAC0E0E9C0E0EE1202B9D0C9
:10017600E0F9D0E0FAD0E0FB1209EFFF60AAEBC08D
:10018600E0EAC0E0E9C0E0120061D0E02401F9D065
:10019600E03400FAD0E0FBE53E0460DCD53ED980D1
:1001A600877BFF7A0279B5D202809C79108002792A
:1001B60008C206C2088008D2D5790A8004790AC224
:1001C600D5E53E047002F53EE4FAFDFEFF12002678
:1001D600FC7B08200113120026FD7B1030000A125A
:1001E6000026FE120026FF7B20EC3382D592D550E6
:1001F60013C3E43000069FFFE49EFEE42001039D46
:10020600FDE49CFCE4CBF8C201EC700CCFCECDCC67
:10021600E824F8F870F38017C3EF33FFEE33FEEDF2
:1002260033FDEC33FCEB33FB994002FB0FD8E9EBD3
:10023600300105F8D0E0C448B201C0E00AEC4D4EEA
:100246004F78207B0070C2EAB53E0040BCC0E01289
:1002560002BBD0F0D0E0200104C4C0E0C4B201C0AB
:10026600F012004AD0F0D5F0EB02009A120AEA0129
:10027600375301B15801084C01044201B54F01BD85
:0F0286004401BD49011D4301C35501A74601A70E
:100295004501A747036350010C2D01102E01332B97
:1002A500011423013120034C2A00CC480000012B06
:1002B5003F3F3F00790AA2D5200314300509B91044
:1002C500020404B9080104A2D52006025001042045
:1002D50002689202B53D005034C0E07F203003191A
:1002E5007F30A20272067205500F120312C202C2BB
:1002F50006C205C2087F30800F300503E9C0E01251
:100305000061300503D0E0F9D0E0B53DCC300517EC
:100315007F30B9100C1200617F583004077F788058
:1003250003B908031200613002057F2D0200617FC9
:10033500202008F87F2B2006F322920280CF286E1A
:10034500756C6C2900D2011200263001F8C20178C3
:100355003D30D50108F60200CC2D50434958120016
:10036500262403B405004001E490035E9312005275
:0D037500743A120052D203753D040201B12A
:101289008B388A39893AAB3BAA3CA93D1209EF60F0
:1012990063AB38AA39A93A1209EF605F853B3E85ED
:1012A9003C3F853D408B418A428943AB3EAA3FA9D9
:1012B900401209EFFF6023AB41AA42A9431209EF8B
:1012C9006F7017042540F540E4353FF53F7401255B
:1012D90043F543E43542F54280D1AB3EAA3FA940EC
:1012E9001209EF7002800D7401253AF53AE4353997
:1012F900F539809DAB38AA39A93A227B007A007961
:021309000022C0
:100A9C00EF4E6012EF60010EEDBB010B89828A8371
:100AAC00F0A3DFFCDEFA2289F05007F709DFFCA97E
:0C0ABC00F022BBFEFCF309DFFCA9F022D5
:1012090002169FE493A3F8E493A34003F68001F246
:1012190008DFF48029E493A3F85407240CC8C333E6
:10122900C4540F4420C8834004F456800146F6DFB5
:10123900E4800B0102040810204080901162E47ED2
:10124900019360BCA3FF543F30E509541FFEE493AA
:10125900A360010ECF54C025E060A840B8E493A371
:10126900FAE493A3F8E493A3C8C582C8CAC583CA9C
:10127900F0A3C8C582C8CAC583CADFE9DEE780BE54
:0111FC0000F2
:100AC800BB010689828A83F0225002F722BBFE010D
:020AD800F32207
:100ADA00FAE6FB0808E6F925F0F618E6CA3AF6221D
:100AEA00D083D082F8E4937012740193700DA3A39B
:100AFA0093F8740193F5828883E4737402936860AF
:060B0A00EFA3A3A380DFAE
:00000001FF
