:1000B7003F065B4F666D7D077F6F777C395E797191
:0600DB000108000109000C
:0C00C700758901D28C758CD8758AF022E6
:10008F00E5089000B793F580308D0A0509C28D758C
:10009F008CD8758AF0E509B4640D0508E508B4102D
:0700AF0003E4F508E4F50984
:0100B6002227
:0800D3001200C712008F80FB30
:03000000020003F8
:0C000300787FE4F6D8FD75810902004A00
:10000F000200D3E493A3F8E493A34003F68001F234
:10001F0008DFF48029E493A3F85407240CC8C333F2
:10002F00C4540F4420C8834004F456800146F6DFC1
:10003F00E4800B01020408102040809000DBE47E76
:10004F00019360BCA3FF543F30E509541FFEE493B6
:10005F00A360010ECF54C025E060A840B8E493A37D
:10006F00FAE493A3F8E493A3C8C582C8CAC583CAA8
:10007F00F0A3C8C582C8CAC583CADFE9DEE780BE60
:0100E100001E
:00000001FF
