:0B014B00C1000108000409FFFFFFFFD6
:10012B005389F0438901D28C758CF8758ACDD2AF87
:03013B00D2A92224
:10009A00300073C200E50925E0FFA2B1E4334FF551
:1000AA0009E50A25E0FFA2B0E4334FF50AE50B257E
:1000BA00E0FFA2B2E4334FF50BE50C25E0FFA2B353
:1000CA00E4334FF50CE4FFE508A807088002C313E0
:1000DA00D8FC20E01774092FF8E6701004A8070866
:1000EA008002C333D8FC4208EF04FF2274092FF8B8
:1000FA00E6B4FF0E7401A807088002C333D8FCF4E3
:08010A0052080FBF04C17FFF82
:0101120022CA
:10011300BF0103B2A022BF0203B2A122BF0303B2F5
:08012300A622BF0402B2A722CC
:0D013E00E4FE12012B12009A12011380F84A
:03000B0002015798
:09015700758CF8758ACDD20032D6
:0300000002000EED
:0C000E00787FE4F6D8FD758120020055D3
:10001A0002013EE493A3F8E493A34003F68001F2BD
:10002A0008DFF48029E493A3F85407240CC8C333E7
:10003A00C4540F4420C8834004F456800146F6DFB6
:10004A00E4800B010204081020408090014BE47EFA
:10005A00019360BCA3FF543F30E509541FFEE493AB
:10006A00A360010ECF54C025E060A840B8E493A372
:10007A00FAE493A3F8E493A3C8C582C8CAC583CA9D
:10008A00F0A3C8C582C8CAC583CADFE9DEE780BE55
:0101560000A8
:00000001FF
