:0C0673003F065B4F666D7D077F6F400007
:10060500C100043C00000000043800000000084060
:100615000B0B0B0B0B0B0B00012100042200000040
:10062500001026FFFFFFFFFFFFFFFFFFFFFFFFFF9C
:06063500FFFFFF0137008A
:10066200E4FEEEC39F5009E4FD0DBD7FFC0E80F257
:010672002265
:10063C005389F0438901D28C758CF8758ACDD2AF71
:03064C00D2A9220E
:1002A600E52114600F146011146013240370127595
:1002B600907F800D7590BF80087590DF80037590E4
:1002C600EF2000030203B5C200E52125E025E02466
:1002D60026F8E625E0FFA293E4334FFFE52125E06B
:1002E60025E02426F8A607E52125E025E02427F8C1
:1002F600E625E0FFA292E4334FFFE52125E025E065
:100306002427F8A607E52125E025E02428F8E62598
:10031600E0FFA291E4334FFFE52125E025E0242804
:10032600F8A607E52125E025E02429F8E625E0FFE3
:10033600A290E4334FFFE52125E025E02429F8A625
:1003460007E4FF74222521F8E6FEA807088002C309
:1003560013D8FC20E02CE52125E025E024262FF803
:10036600E6701F74222521F8C0007401A8070880D2
:1003760002C333D8FC4ED000F6E52125E025E02F58
:10038600FF22E52125E025E024262FF8E6B4FF1913
:1003960074222521F8C000E6FE7401A80708800231
:1003A600C333D8FCF45ED000F60FEF6404709405F6
:0B03B60021E521B40403E4F5217FFFE2
:0103C1002219
:0803C2008F0D8E0C8D0B8C0ACF
:1003CA00E4F512EC4D4E4F700EF511F510F50FF5E0
:1003DA000EF54705128025AF0DAE0CAD0BAC0AEC3D
:1003EA0033500D1201CA8F118E108D0F8C0E800C96
:1003FA00850D11850C10850B0F850A0EAF11AE10F5
:10040A00AD0FAC0EEC4D4E4F6053E512D39407403E
:10041A0012E4F51374402513F8760A0513E513B4AC
:10042A0008F222E47B0AFAF9F8AF11AE10AD0FAC6C
:10043A000E1205C1AF03C3740795122440F8A6072C
:10044A00AF11AE10AD0FAC0EE47B0AFAF9F8120543
:10045A00C18F118E108D0F8C0E0512809FAC0AEC85
:10046A00335024E51294074012E4F513744025131F
:10047A00F8760A0513E513B408F222C37407951235
:10048A002440F8760A0512E4FFC374089512FEEFB9
:0D049A00C39E500974402FF8760B0F80ECC4
:0104A7002232
:02000E008F0958
:10001000E509C39400403FE509D394095038E47FD3
:100020000AFEFDFCAB3FAA3EA93DA83C12017BA8FD
:1000300004A905AA06AB07E4FCFDFEEB2509F53F84
:10004000EE3AF53EED39F53DEC38F53CAF3FAE3ECE
:10005000AD3DFC020177E509C3940A405CE509D394
:10006000940D5055853F3B853E3A853D39853C385A
:10007000E4F53FF53EF53DF53CE50924F560161441
:10008000601F1460282403600302017A75362BC2B6
:10009000A0D2A1800775362DD2A0C2A1D2A6D2A728
:1000A0002275362AD2A0D2A1C2A6D2A72275362F97
:1000B000D2A0D2A1D2A6C2A722E509640E60030293
:1000C0000151E53624D6603F24FD602024FE6054B3
:1000D00024047073E53B253FF53FE53A353EF53E98
:1000E000E539353DF53DE538353C8017C3E53B95B1
:1000F0003FF53FE53A953EF53EE539953DF53DE561
:1001000038953CF53C8038AF3FAE3EAD3DAC3CABA6
:100110003BAA3AA939A83812017B8F3F8E3E8D3D0C
:100120008C3C801BAB3FAA3EA93DA83CAF3BAE3AFE
:10013000AD39AC381205C18F3F8E3E8D3D8C3CD21F
:10014000A0D2A1D2A6D2A7AF3FAE3EAD3DAC3C807F
:1001500026E509B40F24E4F53FF53EF53DF53CF501
:100160003BF53AF539F538D2A0D2A1D2A6D2A7AF45
:0A0170003FAE3EAD3DAC3C1203C2B1
:01017A002262
:1004A800E537B4080050739004B6F828287302049E
:1004B800CE0204D80204E20204EC0204F6020500AB
:1004C80002050A020514D2A4D2A3D2A2E5408044B0
:1004D800D2A4D2A3C2A2E541803AD2A4C2A3D2A296
:1004E800E5428030D2A4C2A3C2A2E5438026C2A4BA
:1004F800D2A3D2A2E544801CC2A4D2A3C2A2E545DD
:100508008012C2A4C2A3D2A2E5468008C2A4C2A394
:10051800C2A2E54790067393F5807F02120662E453
:0C052800F5800537E537B40803E4F5372B
:0105340022A4
:10064F00E4F50812063C1202A68F0812000E1204DF
:03065F00A880F37D
:03000B0002067F6B
:09067F00758CF8758ACDD20032A9
:03000000020535C1
:0C053500787FE4F6D8FD75814702057C54
:10017B00E88FF0A4CC8BF0A42CFCE98EF0A42CFC23
:10018B008AF0EDA42CFCEA8EF0A4CDA8F08BF0A4A1
:10019B002DCC3825F0FDE98FF0A42CCD35F0FCEB00
:1001AB008EF0A4FEA9F0EB8FF0A4CFC5F02ECD39C5
:0F01BB00FEE43CFCEAA42DCE35F0FDE43CFC2232
:1005C100C2D5E830E70FB2D5E4C39BFBE49AFAE465
:1005D10099F9E498F8EC30E717B2D51205F7120251
:1005E10014E4C39BFBE49AFAE499F9E498F88003D4
:1005F10012021430D50DE4C39FFFE49EFEE49DFD7D
:04060100E49CFC2257
:0E01CA00C3E49FFFE49EFEE49DFDE49CFC2246
:1005410002064FE493A3F8E493A34003F68001F27B
:1005510008DFF48029E493A3F85407240CC8C333BB
:10056100C4540F4420C8834004F456800146F6DF8A
:10057100E4800B0102040810204080900605E47E0F
:10058100019360BCA3FF543F30E509541FFEE4937F
:10059100A360010ECF54C025E060A840B8E493A346
:1005A100FAE493A3F8E493A3C8C582C8CAC583CA71
:1005B100F0A3C8C582C8CAC583CADFE9DEE780BE29
:01063B0000BE
:1001D80075F008758200EF2FFFEE33FECD33CDCCDE
:1001E80033CCC58233C5829BED9AEC99E582984061
:1001F8000CF582EE9BFEED9AFDEC99FC0FD5F0D63E
:10020800E4CEFBE4CDFAE4CCF9A88222B800C1B967
:100218000059BA002DEC8BF084CFCECDFCE5F0CBA5
:10022800F97818EF2FFFEE33FEED33FDEC33FCEBDE
:1002380033FB10D703994004EB99FB0FD8E5E4F999
:10024800FA227818EF2FFFEE33FEED33FDEC33FC86
:10025800C933C910D7059BE99A4007EC9BFCE99A7A
:10026800F90FD8E0E4C9FAE4CCFB2275F010EF2FBF
:10027800FFEE33FEED33FDCC33CCC833C810D707BF
:100288009BEC9AE899400AED9BFDEC9AFCE899F8FA
:0E0298000FD5F0DAE4CDFBE4CCFAE4C8F9228D
:00000001FF
