:1001E8003F065B4F666D7D077F6F777C395E79715F
:1001B700C100010800040900000000100DFFFFFF47
:0D01C700FFFFFFFFFFFFFFFFFFFFFFFFFF38
:1001D5005389F0438901D28C758CF8758ACDD2AFDD
:0301E500D2A9227A
:10000E00E50814600F146011146013240370127548
:10001E00907F800D7590BF80087590DF800375907E
:10002E00EF20000302011EC200E50825E025E024B2
:10003E000DF8E625E0FFA293E4334FFFE50825E037
:10004E0025E0240DF8A607E50825E025E0240EF8A6
:10005E00E625E0FFA292E4334FFFE50825E025E018
:10006E00240EF8A607E50825E025E0240FF8E6257E
:10007E00E0FFA291E4334FFFE50825E025E0240FD1
:10008E00F8A607E50825E025E02410F8E625E0FFB0
:10009E00A290E4334FFFE50825E025E02410F8A6F2
:1000AE0007E4FF74092508F8E6FEA807088002C3D6
:1000BE0013D8FC20E02DE50825E025E0240D2FF8CF
:1000CE00E6702074092508F8C0007401A80708809E
:1000DE0002C333D8FC4ED000F6E50825E025E02F0C
:1000EE0004FF22E50825E025E0240D2FF8E6B4FFF5
:1000FE001974092508F8C000E6FE7401A8070880E7
:10010E0002C333D8FCF45ED000F60FEF6404709394
:0C011E000508E508B40403E4F5087FFFC1
:01012A0022B2
:0C020500EFF46007EF9001E793F5802212
:0D01F800E4FE1201D512000E12020580F87F
:03000B00020211DD
:09021100758CF8758ACDD200321B
:0300000002012BCF
:0C012B00787FE4F6D8FD75812002017297
:100137000201F8E493A3F8E493A34003F68001F2E5
:1001470008DFF48029E493A3F85407240CC8C333C9
:10015700C4540F4420C8834004F456800146F6DF98
:10016700E4800B01020408102040809001B7E47E70
:10017700019360BCA3FF543F30E509541FFEE4938D
:10018700A360010ECF54C025E060A840B8E493A354
:10019700FAE493A3F8E493A3C8C582C8CAC583CA7F
:1001A700F0A3C8C582C8CAC583CADFE9DEE780BE37
:0101D400002A
:00000001FF
