:0D00DE0048656C6C6F20576F726C642100D8
:100096001200AAE4FDFF1200037BFF7A0079DE124C
:0400A600002680FEB2
:0E00CF00C2A6D2A5D2A7AF80EF5480FFC2A771
:0100DD002200
:10004900AE071200CFEF70FAC2A6C2A5C2A78E8072
:0A005900D2A77F011200BEC2A72249
:10006300AE071200CFEF70FAD2A6C2A5C2A78E8048
:0A007300D2A77F011200BEC2A7222F
:10000300EDD39401501CEF940F5017ED7007EF24BC
:1000130080F5088008BD0105EF24C0F508AF08127C
:02002300004992
:0100250022B8
:1000AA007F381200497F0C1200497F061200497FEF
:0400BA0001020049F6
:0500F7007F0102004939
:100026008B088A09890AAB08AA09A90A12007DFF6A
:1000360060101200637401250AF50AE43509F50912
:0300460080E42231
:1000BE00E4FEEEC39F5009E4FD0DBD7FFC0E80F201
:0100CE00220F
:030000000200EB10
:0C00EB00787FE4F6D8FD75810A020096CB
:10007D00BB010689828A83E0225002E722BBFE0281
:09008D00E32289828A83E49322B4
:00000001FF
