:0B000E003F065B4F666D7D077F6F4073
:1004A000013000013100012E00013200013600014F
:1004B0003700013B00013C00013800012C00012DF8
:1004C00000012B00012F00C101C107C10CC106C1F1
:1004D00005C109C1030133000234000002390000E4
:1004E000C102C10AC108C10BC104012200012300DD
:1004F0000424FFFFFFFF012800C100012900012A99
:0105000000FA
:1006BA00E4FEEEC39F5009E4FD0DBD7FFC0E80F2FF
:0106CA00220D
:100694005389F0438901D28C758CDCE4F58AD2AF9E
:0306A400D2A922B6
:1006A70053890F438910D28E758DF8758BCDD2AFD4
:0306B700D2AB22A1
:10057C00200203300826300904C209B2A530051C3C
:10058C00C2050522E522B40407E4F522C202D2A575
:0C059C00E522B40207E4F522C208D2A553
:0105A8002230
:10035900300673C206E52425E0FFA2B1E4334FF568
:1003690024E52525E0FFA2B0E4334FF525E5262550
:10037900E0FFA2B2E4334FF526E52725E0FFA2B35B
:10038900E4334FF527E4FFE523A807088002C313E8
:10039900D8FC20E01774242FF8E6701004A8070889
:1003A9008002C333D8FC4223EF04FF2274242FF8C0
:1003B900E6B4FF0E7401A807088002C333D8FCF421
:0803C90052230FBF04C17FFFA6
:0103D1002209
:10050200EF64017046052FE52FB40503E4F52FE5EE
:100512002F7004D2A08007E52FB40106C2A0D2A199
:100522008009E52FB40209D2A0C2A1D2A6D2A72285
:10053200E52FB40309D2A0D2A1C2A6D2A722E52FE9
:0C054200B40408D2A0D2A1D2A6C2A72205
:1005A900E52F64016023300120C201052EE52EB438
:1005B9003C17E4F52E0531E531B43C0DE4F5310580
:0A05C90030E530B41803E4F53022E9
:1002DF00E52F64017073BF020B0533E533640470BF
:1002EF0068F53322EF6403702EE53324FE60121499
:1002FF00601A24027053052EE52E643C704BF52EC8
:10030F00220531E531643C7040F531220530E5308E
:10031F0064187035F53022EF6404702DE53324FE38
:10032F00601214601A24027020152EE52EB4FF19E6
:10033F00752E3B221531E531B4FF0E75313B221579
:0A034F0030E530B4FF0375301722CB
:1003D200E52F64027060BF02140535E53570020531
:1003E20034640445347045F534F535803FEF6403D9
:1003F2007035E5347036E53524FE601314601C2434
:100402000270290537E537643C7021F537801D05F8
:1004120036E536B43C16E4F53680110532E532B4E1
:10042200180AE4F5328005BF0402B20A300A05C296
:07043200A0C2A122D2A0220A
:10067F00300A11E532B5300CE536B53107E537B53F
:05068F002E02D2022240
:10043900E52F64037060BF0214053AE53A700205BE
:1004490039640445397045F539F53A803FEF64035D
:100459007035E5397036E53A24FE601314601C24C2
:100469000270290538E53864647021F538801D0566
:100479003CE53CB43C16E4F53C8011053BE53BB456
:10048900640AE4F53B8005BF0402B20B300B05C2D8
:07049900A6C2A722D2A72290
:1005D300300B25300722C207E538701AE53C70104E
:1005E300E53B7005D208C20B22153B753C3B8002EC
:0905F300153C753863221538220D
:10066300E52FB40416BF0203D20422BF0303C2045E
:0C06730022BF0407E4F52CF52DF52B2226
:1005FC00300423300C20C20C052BE52BB46417E41B
:10060C00F52B052DE52DB43C0DE4F52D052CE52C35
:07061C00B46403E4F52C2295
:10001E00E4FFFEFDFCFBFAE52F6003B4012AE53098
:10002E0075F00A84FFE53075F00A84AEF0E531759F
:10003E00F00A84FDE53175F00A84ACF0E52E75F01A
:10004E000A84FBE52E0200DEE52FB40229E53275A7
:10005E00F00A84FFE53275F00A84AEF0E53675F0ED
:10006E000A84FDE53675F00A84ACF0E53775F00AC2
:10007E0084FBE537805AE52FB40329E53B75F00A7A
:10008E0084FFE53B75F00A84AEF0E53C75F00A841A
:10009E00FDE53C75F00A84ACF0E53875F00A84FB9A
:1000AE00E538802CE52FB4042DE52C75F00A84FF7D
:1000BE00E52C75F00A84AEF0E52D75F00A84FDE5A9
:1000CE002D75F00A84ACF0E52B75F00A84FBE52B58
:1000DE0075F00A84AAF0300304C203B200200003B4
:1000EE000201C9E52F64017045E533B40112E5281C
:1000FE0064066054E528640760030201C902019A90
:10010E00E533B40212E52864036053E52864046005
:10011E00030201C90201B2E533640360030201C99F
:10012E00E528604C640160030201C90201C6E52F97
:10013E006402703EE53564014534700EE5286406B0
:10014E006006E528640770738042E5356402453425
:10015E00700EE52864036006E5286404705D804433
:10016E00E535640345347053E52860046401704B33
:10017E008046E52F64037043E53A640145397011FA
:10018E00E52864066006E5286407702FE4F52880EC
:10019E002AE53A640245397010E52864036005E5E6
:1001AE0028B404177528058012E53A6403453970A2
:1001BE000AE5286003B40103752802E528B4080097
:1001CE0050709001D7F82828730201EF0201F8024F
:1001DE00020102020902021202021B02022702029D
:1001EE0033D2A4D2A3D2A2EF8036D2A4D2A3C2A27B
:1001FE00EE802DD2A4C2A3D2A28018D2A4C2A3C2D2
:10020E00A2ED801CC2A4D2A3D2A2EC8013C2A4D2AF
:10021E00A3C2A2900018E48016C2A4C2A3D2A2EB7D
:10022E0090000E800AC2A4C2A3C2A2EA90000E934E
:10023E00F5807F021206BAE4F5800528E528B40899
:04024E0003E4F528A8
:010252002289
:10054E001206941206A71205A912057C12067F1236
:10055E0005D31205FC120359A9071205021202DF78
:0E056E001203D212043912066312001E80D846
:03000B00020623C7
:04062300C0E0C0D0A3
:100627000529758CDC758A00D207D20CE529B464DC
:0806370007752900D201D2056C
:05063F00D0D0D0E03234
:03001B0002064496
:04064400C0E0C0D082
:10064800052A758DF8758BCDD206D209E52AB47DB9
:0606580005752A00D20323
:05065E00D0D0D0E03215
:03000000020253A6
:0C025300787FE4F6D8FD75813C02029A29
:10025F0002054EE493A3F8E493A34003F68001F262
:10026F0008DFF48029E493A3F85407240CC8C333A0
:10027F00C4540F4420C8834004F456800146F6DF6F
:10028F00E4800B01020408102040809004A0E47E5B
:10029F00019360BCA3FF543F30E509541FFEE49364
:1002AF00A360010ECF54C025E060A840B8E493A32B
:1002BF00FAE493A3F8E493A3C8C582C8CAC583CA56
:1002CF00F0A3C8C582C8CAC583CADFE9DEE780BE0E
:0105010000F9
:00000001FF
