:0B000E003F065B4F666D7D077F6F4073
:1001FB00010D00010E00010C00C100C1010108003E
:09020B00010900010A00010B00C9
:10021500E4FEEEC39F5009E4FD0DBD7FFC0E80F2A8
:0102250022B6
:0F0226005389F0438901D28C758CF8758ACD22EB
:0F02350053890F438910D28E758DDCE4F58B222F
:10018100300120C201050CE50CB43C17E4F50C0567
:100191000EE50EB43C0DE4F50E050DE50DB41803A6
:0401A100E4F50D2252
:10001E00E508B4080040030200A890002FF8282835
:10002E007302004702005102005B02006302006D82
:10003E00020077020083020094D2A4D2A3D2A2E5DA
:10004E000D803AD2A4D2A3C2A2E50D8041D2A4C2A1
:10005E00A3D2A2801AD2A4C2A3C2A2E50E801EC24F
:10006E00A4D2A3D2A2E50E8025C2A4D2A3C2A2908E
:10007E000018E48022C2A4C2A3D2A2E50C75F00A35
:10008E008490000E8011C2A4C2A3C2A2E50C75F02A
:10009E000A84E5F090000E93F5807F02120215E4BB
:0C00AE00F5800508E508B40803E4F50837
:0100BA002223
:10014700C374089509FF74FEA807088002C313D873
:10015700FCFFAE0974FEA806088002C333D8FC4F23
:10016700F5A0300014C2000509E509B402037509BA
:0901770006E509B40803E4F509EA
:01018000225C
:1001A500D2AFD2A9D2AB12022612023512018112A8
:1001B500001EE50E700512014780F175A0FF80EC69
:03000B000201C52A
:0401C500C0E0C0D006
:1001C900050A758CF8758ACDE50AB46405750A00C7
:0201D900D20052
:0501DB00D0D0D0E0329D
:03001B000201E0FF
:0401E000C0E0C0D0EB
:1001E400050B758DDC758B00E50BB46405750B0090
:0201F400D20136
:0501F600D0D0D0E03282
:030000000200BB40
:0C00BB00787FE4F6D8FD75812002010278
:1000C7000201A5E493A3F8E493A34003F68001F2A9
:1000D70008DFF48029E493A3F85407240CC8C3333A
:1000E700C4540F4420C8834004F456800146F6DF09
:1000F700E4800B01020408102040809001FBE47E9D
:10010700019360BCA3FF543F30E509541FFEE493FD
:10011700A360010ECF54C025E060A840B8E493A3C4
:10012700FAE493A3F8E493A3C8C582C8CAC583CAEF
:10013700F0A3C8C582C8CAC583CADFE9DEE780BEA7
:0102140000E9
:00000001FF
