:10012D003F065B4F666D7D077F6F777C395E79711A
:05000300C1000108002E
:0F013D005389F0438901D28C758CF8758ACD22D5
:10000E00E508B40800507990001CF8282873020007
:10001E003402003F02004A02005502006002006BEB
:10002E00020076020081D2A4D2A3D2A290012D802A
:10003E004BD2A4D2A3C2A290012E8040D2A4C2A3BE
:10004E00D2A290012F8035D2A4C2A3C2A2900130B9
:10005E00802AC2A4D2A3D2A2900131801FC2A4D200
:10006E00A3C2A29001328014C2A4C2A3D2A2900154
:10007E00338009C2A4C2A3C2A2900134E493F580D6
:10008E0030000FE4F5800508E508B40803E4F50830
:02009E00C2009E
:0100A000223D
:0C014C00D2AFD2A912013D12000E80FBC0
:03000B0002015897
:09015800758CF8758ACDD20032D5
:030000000200A15A
:0C00A100787FE4F6D8FD7581200200E8AD
:1000AD0002014CE493A3F8E493A34003F68001F21C
:1000BD0008DFF48029E493A3F85407240CC8C33354
:1000CD00C4540F4420C8834004F456800146F6DF23
:1000DD00E4800B0102040810204080900003E47EB0
:1000ED00019360BCA3FF543F30E509541FFEE49318
:1000FD00A360010ECF54C025E060A840B8E493A3DF
:10010D00FAE493A3F8E493A3C8C582C8CAC583CA09
:10011D00F0A3C8C582C8CAC583CADFE9DEE780BEC1
:0100080000F7
:00000001FF
